{
  "contractName": "Exchange",
  "abi": [
    {
      "constant": true,
      "inputs": [],
      "name": "getOwner",
      "outputs": [
        {
          "name": "",
          "type": "address"
        }
      ],
      "payable": false,
      "stateMutability": "view",
      "type": "function"
    },
    {
      "inputs": [],
      "payable": false,
      "stateMutability": "nonpayable",
      "type": "constructor"
    },
    {
      "anonymous": false,
      "inputs": [
        {
          "indexed": false,
          "name": "accountAddress",
          "type": "address"
        },
        {
          "indexed": false,
          "name": "amount",
          "type": "uint256"
        }
      ],
      "name": "LogDepositEther",
      "type": "event"
    },
    {
      "anonymous": false,
      "inputs": [
        {
          "indexed": false,
          "name": "accountAddress",
          "type": "address"
        },
        {
          "indexed": false,
          "name": "amount",
          "type": "uint256"
        }
      ],
      "name": "LogWithdrawEther",
      "type": "event"
    },
    {
      "anonymous": false,
      "inputs": [
        {
          "indexed": false,
          "name": "symbolName",
          "type": "string"
        },
        {
          "indexed": false,
          "name": "accountAddress",
          "type": "address"
        },
        {
          "indexed": false,
          "name": "amount",
          "type": "uint256"
        },
        {
          "indexed": false,
          "name": "timestamp",
          "type": "uint256"
        }
      ],
      "name": "LogDepositToken",
      "type": "event"
    },
    {
      "anonymous": false,
      "inputs": [
        {
          "indexed": false,
          "name": "symbolName",
          "type": "string"
        },
        {
          "indexed": false,
          "name": "accountAddress",
          "type": "address"
        },
        {
          "indexed": false,
          "name": "amount",
          "type": "uint256"
        },
        {
          "indexed": false,
          "name": "timestamp",
          "type": "uint256"
        }
      ],
      "name": "LogWithdrawToken",
      "type": "event"
    },
    {
      "anonymous": false,
      "inputs": [
        {
          "indexed": false,
          "name": "tokenIndex",
          "type": "uint256"
        },
        {
          "indexed": false,
          "name": "symbolName",
          "type": "string"
        },
        {
          "indexed": false,
          "name": "EC20TokenAddress",
          "type": "address"
        },
        {
          "indexed": false,
          "name": "timestamp",
          "type": "uint256"
        }
      ],
      "name": "LogAddToken",
      "type": "event"
    },
    {
      "anonymous": false,
      "inputs": [
        {
          "indexed": false,
          "name": "symbolName",
          "type": "string"
        },
        {
          "indexed": false,
          "name": "priceInWei",
          "type": "uint256"
        },
        {
          "indexed": false,
          "name": "amount",
          "type": "uint256"
        },
        {
          "indexed": false,
          "name": "buyer",
          "type": "address"
        },
        {
          "indexed": false,
          "name": "timestamp",
          "type": "uint256"
        }
      ],
      "name": "LogBuyToken",
      "type": "event"
    },
    {
      "anonymous": false,
      "inputs": [
        {
          "indexed": false,
          "name": "symbolName",
          "type": "string"
        },
        {
          "indexed": false,
          "name": "priceInWei",
          "type": "uint256"
        },
        {
          "indexed": false,
          "name": "amount",
          "type": "uint256"
        },
        {
          "indexed": false,
          "name": "buyer",
          "type": "address"
        },
        {
          "indexed": false,
          "name": "timestamp",
          "type": "uint256"
        }
      ],
      "name": "LogSellToken",
      "type": "event"
    },
    {
      "anonymous": false,
      "inputs": [
        {
          "indexed": false,
          "name": "symbolName",
          "type": "string"
        },
        {
          "indexed": false,
          "name": "priceInWei",
          "type": "uint256"
        },
        {
          "indexed": false,
          "name": "amount",
          "type": "uint256"
        },
        {
          "indexed": false,
          "name": "buyer",
          "type": "address"
        },
        {
          "indexed": false,
          "name": "timestamp",
          "type": "uint256"
        }
      ],
      "name": "LogCreateBuyOrder",
      "type": "event"
    },
    {
      "anonymous": false,
      "inputs": [
        {
          "indexed": false,
          "name": "symbolName",
          "type": "string"
        },
        {
          "indexed": false,
          "name": "priceInWei",
          "type": "uint256"
        },
        {
          "indexed": false,
          "name": "amount",
          "type": "uint256"
        },
        {
          "indexed": false,
          "name": "seller",
          "type": "address"
        },
        {
          "indexed": false,
          "name": "timestamp",
          "type": "uint256"
        }
      ],
      "name": "LogCreateSellOrder",
      "type": "event"
    },
    {
      "anonymous": false,
      "inputs": [
        {
          "indexed": false,
          "name": "symbolName",
          "type": "string"
        },
        {
          "indexed": false,
          "name": "orderIndex",
          "type": "uint256"
        },
        {
          "indexed": false,
          "name": "priceInWei",
          "type": "uint256"
        },
        {
          "indexed": false,
          "name": "amount",
          "type": "uint256"
        },
        {
          "indexed": false,
          "name": "timestamp",
          "type": "uint256"
        }
      ],
      "name": "LogFulfilBuyOrder",
      "type": "event"
    },
    {
      "anonymous": false,
      "inputs": [
        {
          "indexed": false,
          "name": "symbolName",
          "type": "string"
        },
        {
          "indexed": false,
          "name": "orderIndex",
          "type": "uint256"
        },
        {
          "indexed": false,
          "name": "priceInWei",
          "type": "uint256"
        },
        {
          "indexed": false,
          "name": "amount",
          "type": "uint256"
        },
        {
          "indexed": false,
          "name": "timestamp",
          "type": "uint256"
        }
      ],
      "name": "LogFulfilSellOrder",
      "type": "event"
    },
    {
      "anonymous": false,
      "inputs": [
        {
          "indexed": false,
          "name": "symbolName",
          "type": "string"
        },
        {
          "indexed": false,
          "name": "orderIndex",
          "type": "uint256"
        },
        {
          "indexed": false,
          "name": "buyer",
          "type": "address"
        },
        {
          "indexed": false,
          "name": "timestamp",
          "type": "uint256"
        }
      ],
      "name": "LogCancelBuyOrder",
      "type": "event"
    },
    {
      "anonymous": false,
      "inputs": [
        {
          "indexed": false,
          "name": "symbolName",
          "type": "string"
        },
        {
          "indexed": false,
          "name": "orderIndex",
          "type": "uint256"
        },
        {
          "indexed": false,
          "name": "seller",
          "type": "address"
        },
        {
          "indexed": false,
          "name": "timestamp",
          "type": "uint256"
        }
      ],
      "name": "LogCancelSellOrder",
      "type": "event"
    },
    {
      "constant": false,
      "inputs": [],
      "name": "depositEther",
      "outputs": [
        {
          "name": "totalEtherBalanceInWei",
          "type": "uint256"
        }
      ],
      "payable": true,
      "stateMutability": "payable",
      "type": "function"
    },
    {
      "constant": false,
      "inputs": [
        {
          "name": "amountInWei",
          "type": "uint256"
        }
      ],
      "name": "withdrawEther",
      "outputs": [
        {
          "name": "totalEtherBalanceInWei",
          "type": "uint256"
        }
      ],
      "payable": false,
      "stateMutability": "nonpayable",
      "type": "function"
    },
    {
      "constant": true,
      "inputs": [],
      "name": "getEtherBalanceInWei",
      "outputs": [
        {
          "name": "",
          "type": "uint256"
        }
      ],
      "payable": false,
      "stateMutability": "view",
      "type": "function"
    },
    {
      "constant": false,
      "inputs": [
        {
          "name": "symbolName",
          "type": "string"
        },
        {
          "name": "EC20TokenAddress",
          "type": "address"
        }
      ],
      "name": "addToken",
      "outputs": [],
      "payable": false,
      "stateMutability": "nonpayable",
      "type": "function"
    },
    {
      "constant": false,
      "inputs": [
        {
          "name": "symbolName",
          "type": "string"
        },
        {
          "name": "amount",
          "type": "uint256"
        }
      ],
      "name": "depositToken",
      "outputs": [
        {
          "name": "tokenBalance",
          "type": "uint256"
        }
      ],
      "payable": false,
      "stateMutability": "nonpayable",
      "type": "function"
    },
    {
      "constant": false,
      "inputs": [
        {
          "name": "symbolName",
          "type": "string"
        },
        {
          "name": "amount",
          "type": "uint256"
        }
      ],
      "name": "withdrawToken",
      "outputs": [
        {
          "name": "tokenBalance",
          "type": "uint256"
        }
      ],
      "payable": false,
      "stateMutability": "nonpayable",
      "type": "function"
    },
    {
      "constant": true,
      "inputs": [
        {
          "name": "symbolName",
          "type": "string"
        }
      ],
      "name": "getBalanceForToken",
      "outputs": [
        {
          "name": "",
          "type": "uint256"
        }
      ],
      "payable": false,
      "stateMutability": "view",
      "type": "function"
    },
    {
      "constant": true,
      "inputs": [
        {
          "name": "symbolName",
          "type": "string"
        }
      ],
      "name": "getTokenAddress",
      "outputs": [
        {
          "name": "",
          "type": "address"
        }
      ],
      "payable": false,
      "stateMutability": "view",
      "type": "function"
    },
    {
      "constant": true,
      "inputs": [
        {
          "name": "symbolName",
          "type": "string"
        }
      ],
      "name": "hasToken",
      "outputs": [
        {
          "name": "",
          "type": "bool"
        }
      ],
      "payable": false,
      "stateMutability": "view",
      "type": "function"
    },
    {
      "constant": true,
      "inputs": [],
      "name": "getAllTokens",
      "outputs": [
        {
          "name": "",
          "type": "string[]"
        },
        {
          "name": "",
          "type": "address[]"
        }
      ],
      "payable": false,
      "stateMutability": "view",
      "type": "function"
    },
    {
      "constant": true,
      "inputs": [
        {
          "name": "symbolName",
          "type": "string"
        }
      ],
      "name": "getTokenIndex",
      "outputs": [
        {
          "name": "",
          "type": "uint8"
        }
      ],
      "payable": false,
      "stateMutability": "view",
      "type": "function"
    },
    {
      "constant": true,
      "inputs": [
        {
          "name": "symbolName",
          "type": "string"
        }
      ],
      "name": "getBuyOrderBook",
      "outputs": [
        {
          "name": "",
          "type": "uint256[]"
        },
        {
          "name": "",
          "type": "uint256[]"
        },
        {
          "name": "",
          "type": "uint256[]"
        }
      ],
      "payable": false,
      "stateMutability": "view",
      "type": "function"
    },
    {
      "constant": true,
      "inputs": [
        {
          "name": "symbolName",
          "type": "string"
        }
      ],
      "name": "getAccountBuyOrders",
      "outputs": [
        {
          "name": "",
          "type": "uint256[]"
        },
        {
          "name": "",
          "type": "uint256[]"
        },
        {
          "name": "",
          "type": "uint256[]"
        }
      ],
      "payable": false,
      "stateMutability": "view",
      "type": "function"
    },
    {
      "constant": true,
      "inputs": [
        {
          "name": "symbolName",
          "type": "string"
        }
      ],
      "name": "getSellOrderBook",
      "outputs": [
        {
          "name": "",
          "type": "uint256[]"
        },
        {
          "name": "",
          "type": "uint256[]"
        },
        {
          "name": "",
          "type": "uint256[]"
        }
      ],
      "payable": false,
      "stateMutability": "view",
      "type": "function"
    },
    {
      "constant": true,
      "inputs": [
        {
          "name": "symbolName",
          "type": "string"
        }
      ],
      "name": "getAccountSellOrders",
      "outputs": [
        {
          "name": "",
          "type": "uint256[]"
        },
        {
          "name": "",
          "type": "uint256[]"
        },
        {
          "name": "",
          "type": "uint256[]"
        }
      ],
      "payable": false,
      "stateMutability": "view",
      "type": "function"
    },
    {
      "constant": false,
      "inputs": [
        {
          "name": "symbolName",
          "type": "string"
        },
        {
          "name": "priceInWei",
          "type": "uint256"
        },
        {
          "name": "amount",
          "type": "uint256"
        }
      ],
      "name": "buyToken",
      "outputs": [],
      "payable": false,
      "stateMutability": "nonpayable",
      "type": "function"
    },
    {
      "constant": false,
      "inputs": [
        {
          "name": "symbolName",
          "type": "string"
        },
        {
          "name": "priceInWei",
          "type": "uint256"
        },
        {
          "name": "amount",
          "type": "uint256"
        }
      ],
      "name": "sellToken",
      "outputs": [],
      "payable": false,
      "stateMutability": "nonpayable",
      "type": "function"
    },
    {
      "constant": false,
      "inputs": [
        {
          "name": "symbolName",
          "type": "string"
        },
        {
          "name": "orderIndex",
          "type": "uint256"
        }
      ],
      "name": "cancelBuyOrder",
      "outputs": [],
      "payable": false,
      "stateMutability": "nonpayable",
      "type": "function"
    },
    {
      "constant": false,
      "inputs": [
        {
          "name": "symbolName",
          "type": "string"
        },
        {
          "name": "orderIndex",
          "type": "uint256"
        }
      ],
      "name": "cancelSellOrder",
      "outputs": [],
      "payable": false,
      "stateMutability": "nonpayable",
      "type": "function"
    }
  ],
  "bytecode": "0x608060405234801561001057600080fd5b50336000806101000a81548173ffffffffffffffffffffffffffffffffffffffff021916908373ffffffffffffffffffffffffffffffffffffffff1602179055506001600260006101000a81548160ff021916908360ff16021790555061413a8061007c6000396000f3fe60806040526004361061010b576000357c010000000000000000000000000000000000000000000000000000000090048062b619871461011057806303bc4a271461014f5780632a5c792a1461018e57806333ad57e4146101ba5780633a2c8eab146101f75780633bed33ce146102365780635320024e146102735780635ab8ea331461029e5780635f968767146102c7578063728ff029146103045780637bf3951e14610343578063851030fe1461036c578063893d20e8146103955780638ea00818146103c0578063965e211f146103fd57806398ea5fca1461043a578063b0b22c2c14610458578063b4f6aa3814610481578063c4091236146104aa578063c97a413a146104e7575b600080fd5b34801561011c57600080fd5b50610137600480360361013291908101906138c0565b610524565b60405161014693929190613cd5565b60405180910390f35b34801561015b57600080fd5b50610176600480360361017191908101906138c0565b61088e565b60405161018593929190613cd5565b60405180910390f35b34801561019a57600080fd5b506101a3610b89565b6040516101b1929190613c9e565b60405180910390f35b3480156101c657600080fd5b506101e160048036036101dc9190810190613955565b610dc5565b6040516101ee9190613e88565b60405180910390f35b34801561020357600080fd5b5061021e600480360361021991908101906138c0565b610fbb565b60405161022d93929190613cd5565b60405180910390f35b34801561024257600080fd5b5061025d60048036036102589190810190613a10565b611325565b60405161026a9190613e88565b60405180910390f35b34801561027f57600080fd5b50610288611419565b6040516102959190613e88565b60405180910390f35b3480156102aa57600080fd5b506102c560048036036102c091908101906139a9565b611460565b005b3480156102d357600080fd5b506102ee60048036036102e991908101906138c0565b61150e565b6040516102fb9190613ea3565b60405180910390f35b34801561031057600080fd5b5061032b600480360361032691908101906138c0565b6115e7565b60405161033a93929190613cd5565b60405180910390f35b34801561034f57600080fd5b5061036a60048036036103659190810190613955565b6118e2565b005b34801561037857600080fd5b50610393600480360361038e91908101906139a9565b611be3565b005b3480156103a157600080fd5b506103aa611d03565b6040516103b79190613c23565b60405180910390f35b3480156103cc57600080fd5b506103e760048036036103e291908101906138c0565b611d2c565b6040516103f49190613d21565b60405180910390f35b34801561040957600080fd5b50610424600480360361041f91908101906138c0565b611d43565b6040516104319190613e88565b60405180910390f35b610442611dab565b60405161044f9190613e88565b60405180910390f35b34801561046457600080fd5b5061047f600480360361047a9190810190613901565b611e5f565b005b34801561048d57600080fd5b506104a860048036036104a39190810190613955565b612031565b005b3480156104b657600080fd5b506104d160048036036104cc91908101906138c0565b61230f565b6040516104de9190613c23565b60405180910390f35b3480156104f357600080fd5b5061050e60048036036105099190810190613955565b612377565b60405161051b9190613e88565b60405180910390f35b606080606061053284611d2c565b151561053d57600080fd5b60006105488561150e565b90506060806060610558886115e7565b92509250925060008090506060600160008760ff1660ff168152602001908152602001600020600601600201546040519080825280602002602001820160405280156105b35781602001602082028038833980820191505090505b50905060008090505b600160008860ff1660ff168152602001908152602001600020600601600201548110156106ba57600086828151811015156105f357fe5b9060200190602002015190503373ffffffffffffffffffffffffffffffffffffffff16600160008a60ff1660ff168152602001908152602001600020600601600101600083815260200190815260200160002060020160009054906101000a900473ffffffffffffffffffffffffffffffffffffffff1673ffffffffffffffffffffffffffffffffffffffff1614156106ac5780838581518110151561069557fe5b906020019060200201818152505083806001019450505b5080806001019150506105bc565b506060826040519080825280602002602001820160405280156106ec5781602001602082028038833980820191505090505b5090506060836040519080825280602002602001820160405280156107205781602001602082028038833980820191505090505b5090506060846040519080825280602002602001820160405280156107545781602001602082028038833980820191505090505b50905060008090505b8581101561087457848181518110151561077357fe5b90602001906020020151848281518110151561078b57fe5b9060200190602002018181525050600160008b60ff1660ff168152602001908152602001600020600601600101600086838151811015156107c857fe5b9060200190602002015181526020019081526020016000206000015483828151811015156107f257fe5b9060200190602002018181525050600160008b60ff1660ff1681526020019081526020016000206006016001016000868381518110151561082f57fe5b90602001906020020151815260200190815260200160002060010154828281518110151561085957fe5b9060200190602002018181525050808060010191505061075d565b508282829b509b509b505050505050505050509193909250565b606080606061089c84611d2c565b15156108a757600080fd5b60006108b28561150e565b90506060600160008360ff1660ff168152602001908152602001600020600201600201546040519080825280602002602001820160405280156109045781602001602082028038833980820191505090505b5090506060600160008460ff1660ff168152602001908152602001600020600201600201546040519080825280602002602001820160405280156109575781602001602082028038833980820191505090505b5090506060600160008560ff1660ff168152602001908152602001600020600201600201546040519080825280602002602001820160405280156109aa5781602001602082028038833980820191505090505b5090506000600190505b600160008660ff1660ff1681526020019081526020016000206002016002015481111515610b74576109e46136db565b600160008760ff1660ff1681526020019081526020016000206002016001016000600160008960ff1660ff16815260200190815260200160002060020160030160018503815481101515610a3457fe5b906000526020600020015481526020019081526020016000206060604051908101604052908160008201548152602001600182015481526020016002820160009054906101000a900473ffffffffffffffffffffffffffffffffffffffff1673ffffffffffffffffffffffffffffffffffffffff1673ffffffffffffffffffffffffffffffffffffffff16815250509050600160008760ff1660ff16815260200190815260200160002060020160030160018303815481101515610af457fe5b90600052602060002001548560018403815181101515610b1057fe5b906020019060200201818152505080600001518460018403815181101515610b3457fe5b906020019060200201818152505080602001518360018403815181101515610b5857fe5b90602001906020020181815250505080806001019150506109b4565b50828282965096509650505050509193909250565b60608060606001600260009054906101000a900460ff160360ff16604051908082528060200260200182016040528015610bd757816020015b6060815260200190600190039081610bc25790505b50905060606001600260009054906101000a900460ff160360ff16604051908082528060200260200182016040528015610c205781602001602082028038833980820191505090505b5090506000600290505b600260009054906101000a900460ff1660ff168160ff16111515610db857600160008260ff1660ff1681526020019081526020016000206001018054600181600116156101000203166002900480601f016020809104026020016040519081016040528092919081815260200182805460018160011615610100020316600290048015610cf85780601f10610ccd57610100808354040283529160200191610cf8565b820191906000526020600020905b815481529060010190602001808311610cdb57829003601f168201915b5050505050836002830360ff16815181101515610d1157fe5b90602001906020020181905250600160008260ff1660ff16815260200190815260200160002060000160009054906101000a900473ffffffffffffffffffffffffffffffffffffffff16826002830360ff16815181101515610d6f57fe5b9060200190602002019073ffffffffffffffffffffffffffffffffffffffff16908173ffffffffffffffffffffffffffffffffffffffff16815250508080600101915050610c2a565b5081819350935050509091565b6000610dd083611d2c565b1515610ddb57600080fd5b610de483611d43565b82610dee85611d43565b0110151515610dfc57600080fd5b6000610e078461150e565b90506000600160008360ff1660ff16815260200190815260200160002060000160009054906101000a900473ffffffffffffffffffffffffffffffffffffffff169050600115158173ffffffffffffffffffffffffffffffffffffffff166323b872dd3330886040518463ffffffff167c0100000000000000000000000000000000000000000000000000000000028152600401610ea793929190613c3e565b602060405180830381600087803b158015610ec157600080fd5b505af1158015610ed5573d6000803e3d6000fd5b505050506040513d601f19601f82011682018060405250610ef99190810190613897565b1515141515610f0757600080fd5b83600360003373ffffffffffffffffffffffffffffffffffffffff1673ffffffffffffffffffffffffffffffffffffffff16815260200190815260200160002060008460ff1660ff168152602001908152602001600020600082825401925050819055507f4dbc01516018d27f28f32ddd20595428f662140f1fff79b754484578ac27fc1985338642604051610fa09493929190613d3c565b60405180910390a1610fb185611d43565b9250505092915050565b6060806060610fc984611d2c565b1515610fd457600080fd5b6000610fdf8561150e565b90506060806060610fef8861088e565b92509250925060008090506060600160008760ff1660ff1681526020019081526020016000206002016002015460405190808252806020026020018201604052801561104a5781602001602082028038833980820191505090505b50905060008090505b600160008860ff1660ff16815260200190815260200160002060020160020154811015611151576000868281518110151561108a57fe5b9060200190602002015190503373ffffffffffffffffffffffffffffffffffffffff16600160008a60ff1660ff168152602001908152602001600020600201600101600083815260200190815260200160002060020160009054906101000a900473ffffffffffffffffffffffffffffffffffffffff1673ffffffffffffffffffffffffffffffffffffffff1614156111435780838581518110151561112c57fe5b906020019060200201818152505083806001019450505b508080600101915050611053565b506060826040519080825280602002602001820160405280156111835781602001602082028038833980820191505090505b5090506060836040519080825280602002602001820160405280156111b75781602001602082028038833980820191505090505b5090506060846040519080825280602002602001820160405280156111eb5781602001602082028038833980820191505090505b50905060008090505b8581101561130b57848181518110151561120a57fe5b90602001906020020151848281518110151561122257fe5b9060200190602002018181525050600160008b60ff1660ff1681526020019081526020016000206002016001016000868381518110151561125f57fe5b90602001906020020151815260200190815260200160002060000154838281518110151561128957fe5b9060200190602002018181525050600160008b60ff1660ff168152602001908152602001600020600201600101600086838151811015156112c657fe5b9060200190602002015181526020019081526020016000206001015482828151811015156112f057fe5b906020019060200201818152505080806001019150506111f4565b508282829b509b509b505050505050505050509193909250565b600061132f611419565b821115151561133d57600080fd5b81600460003373ffffffffffffffffffffffffffffffffffffffff1673ffffffffffffffffffffffffffffffffffffffff168152602001908152602001600020600082825403925050819055503373ffffffffffffffffffffffffffffffffffffffff166108fc839081150290604051600060405180830381858888f193505050501580156113d0573d6000803e3d6000fd5b507fafa3d4523ab440f1468d58fc053ae2fa902d63b75866f46210956313cc5f37153383604051611402929190613c75565b60405180910390a1611412611419565b9050919050565b6000600460003373ffffffffffffffffffffffffffffffffffffffff1673ffffffffffffffffffffffffffffffffffffffff16815260200190815260200160002054905090565b61146983611d2c565b151561147457600080fd5b60008211151561148357600080fd5b60008111151561149257600080fd5b600081830290506114a1611419565b81111515156114af57600080fd5b80600460003373ffffffffffffffffffffffffffffffffffffffff1673ffffffffffffffffffffffffffffffffffffffff1681526020019081526020016000206000828254039250508190555061150884848433612561565b50505050565b600080600190505b600260009054906101000a900460ff1660ff168160ff161115156115dc57600160008260ff1660ff16815260200190815260200160002060010160405180828054600181600116156101000203166002900480156115ab5780601f106115895761010080835404028352918201916115ab565b820191906000526020600020905b815481529060010190602001808311611597575b50509150506040518091039020838051906020012014156115cf57809150506115e2565b8080600101915050611516565b50600090505b919050565b60608060606115f584611d2c565b151561160057600080fd5b600061160b8561150e565b90506060600160008360ff1660ff1681526020019081526020016000206006016002015460405190808252806020026020018201604052801561165d5781602001602082028038833980820191505090505b5090506060600160008460ff1660ff168152602001908152602001600020600601600201546040519080825280602002602001820160405280156116b05781602001602082028038833980820191505090505b5090506060600160008560ff1660ff168152602001908152602001600020600601600201546040519080825280602002602001820160405280156117035781602001602082028038833980820191505090505b5090506000600190505b600160008660ff1660ff16815260200190815260200160002060060160020154811115156118cd5761173d6136db565b600160008760ff1660ff1681526020019081526020016000206006016001016000600160008960ff1660ff1681526020019081526020016000206006016003016001850381548110151561178d57fe5b906000526020600020015481526020019081526020016000206060604051908101604052908160008201548152602001600182015481526020016002820160009054906101000a900473ffffffffffffffffffffffffffffffffffffffff1673ffffffffffffffffffffffffffffffffffffffff1673ffffffffffffffffffffffffffffffffffffffff16815250509050600160008760ff1660ff1681526020019081526020016000206006016003016001830381548110151561184d57fe5b9060005260206000200154856001840381518110151561186957fe5b90602001906020020181815250508060000151846001840381518110151561188d57fe5b9060200190602002018181525050806020015183600184038151811015156118b157fe5b906020019060200201818152505050808060010191505061170d565b50828282965096509650505050509193909250565b6118eb82611d2c565b15156118f657600080fd5b60006119018361150e565b90506000600160008360ff1660ff1681526020019081526020016000206002016002015411151561193157600080fd5b60008090506000809050606060018060008660ff1660ff168152602001908152602001600020600201600201540360405190808252806020026020018201604052801561198d5781602001602082028038833980820191505090505b50905060008060008090505b600160008860ff1660ff16815260200190815260200160002060020160020154811015611adc57600160008860ff1660ff168152602001908152602001600020600201600301818154811015156119ec57fe5b9060005260206000200154881415611a735760019550600160008860ff1660ff1681526020019081526020016000206002016001016000898152602001908152602001600020600001549250600160008860ff1660ff1681526020019081526020016000206002016001016000898152602001908152602001600020600101549150611acf565b600160008860ff1660ff16815260200190815260200160002060020160030181815481101515611a9f57fe5b90600052602060002001548486815181101515611ab857fe5b906020019060200201818152505084806001019550505b8080600101915050611999565b50841515611ae957600080fd5b600160008760ff1660ff168152602001908152602001600020600201600201600081548092919060019003919050555082600160008860ff1660ff1681526020019081526020016000206002016003019080519060200190611b4c929190613713565b50808202600460003373ffffffffffffffffffffffffffffffffffffffff1673ffffffffffffffffffffffffffffffffffffffff168152602001908152602001600020600082825401925050819055507f91f7e29d62ec7c601d9a424db70272575c8e2bb09142a977b4a213c96464129e88883342604051611bd19493929190613d88565b60405180910390a15050505050505050565b611bec83611d2c565b1515611bf757600080fd5b600082111515611c0657600080fd5b600081111515611c1557600080fd5b6000611c208461150e565b90506000600360003373ffffffffffffffffffffffffffffffffffffffff1673ffffffffffffffffffffffffffffffffffffffff16815260200190815260200160002060008360ff1660ff168152602001908152602001600020549050808311151515611c8c57600080fd5b82600360003373ffffffffffffffffffffffffffffffffffffffff1673ffffffffffffffffffffffffffffffffffffffff16815260200190815260200160002060008460ff1660ff16815260200190815260200160002060008282540392505081905550611cfc85858533612914565b5050505050565b60008060009054906101000a900473ffffffffffffffffffffffffffffffffffffffff16905090565b600080611d388361150e565b60ff16119050919050565b6000600360003373ffffffffffffffffffffffffffffffffffffffff1673ffffffffffffffffffffffffffffffffffffffff1681526020019081526020016000206000611d8f8461150e565b60ff1660ff168152602001908152602001600020549050919050565b6000611db5611419565b34611dbe611419565b0110151515611dcc57600080fd5b34600460003373ffffffffffffffffffffffffffffffffffffffff1673ffffffffffffffffffffffffffffffffffffffff168152602001908152602001600020600082825401925050819055507f10dbe332619683814acf7c1cd13290910fb3f8ea58c00dba740cb822df5fdf533334604051611e4a929190613c75565b60405180910390a1611e5a611419565b905090565b6000809054906101000a900473ffffffffffffffffffffffffffffffffffffffff1673ffffffffffffffffffffffffffffffffffffffff163373ffffffffffffffffffffffffffffffffffffffff16141515611eba57600080fd5b611ec382611d2c565b151515611ecf57600080fd5b600260009054906101000a900460ff1660ff166001600260009054906101000a900460ff160160ff1610151515611f0557600080fd5b6002600081819054906101000a900460ff168092919060010191906101000a81548160ff021916908360ff160217905550508160016000600260009054906101000a900460ff1660ff1660ff1681526020019081526020016000206001019080519060200190611f76929190613760565b508060016000600260009054906101000a900460ff1660ff1660ff16815260200190815260200160002060000160006101000a81548173ffffffffffffffffffffffffffffffffffffffff021916908373ffffffffffffffffffffffffffffffffffffffff1602179055507f1723c709bc871c32c420d3c2d2837cdd4bef40c574088c1d055e1f4f609d2377600260009054906101000a900460ff168383426040516120259493929190613ebe565b60405180910390a15050565b61203a82611d2c565b151561204557600080fd5b60006120508361150e565b90506000600160008360ff1660ff1681526020019081526020016000206006016002015411151561208057600080fd5b60008090506000809050606060018060008660ff1660ff16815260200190815260200160002060060160020154036040519080825280602002602001820160405280156120dc5781602001602082028038833980820191505090505b509050600080600090505b600160008760ff1660ff168152602001908152602001600020600601600201548110156121f457600160008760ff1660ff1681526020019081526020016000206006016003018181548110151561213a57fe5b906000526020600020015487141561218b5760019450600160008760ff1660ff16815260200190815260200160002060060160010160008881526020019081526020016000206001015491506121e7565b600160008760ff1660ff168152602001908152602001600020600601600301818154811015156121b757fe5b906000526020600020015483858151811015156121d057fe5b906020019060200201818152505083806001019450505b80806001019150506120e7565b5083151561220157600080fd5b600160008660ff1660ff168152602001908152602001600020600601600201600081548092919060019003919050555081600160008760ff1660ff1681526020019081526020016000206006016003019080519060200190612264929190613713565b5080600360003373ffffffffffffffffffffffffffffffffffffffff1673ffffffffffffffffffffffffffffffffffffffff16815260200190815260200160002060008760ff1660ff168152602001908152602001600020600082825401925050819055507ffb83029a92d41167efc16e5c94c049d5e0a210747defe894b95dbfa90e4b615b878733426040516122fe9493929190613d88565b60405180910390a150505050505050565b600061231a82611d2c565b151561232557600080fd5b60006123308361150e565b9050600160008260ff1660ff16815260200190815260200160002060000160009054906101000a900473ffffffffffffffffffffffffffffffffffffffff16915050919050565b600061238283611d2c565b151561238d57600080fd5b61239683611d43565b82111515156123a457600080fd5b60006123af8461150e565b90506000600160008360ff1660ff16815260200190815260200160002060000160009054906101000a900473ffffffffffffffffffffffffffffffffffffffff16905083600360003373ffffffffffffffffffffffffffffffffffffffff1673ffffffffffffffffffffffffffffffffffffffff16815260200190815260200160002060008460ff1660ff16815260200190815260200160002060008282540392505081905550600115158173ffffffffffffffffffffffffffffffffffffffff1663a9059cbb33876040518363ffffffff167c01000000000000000000000000000000000000000000000000000000000281526004016124b1929190613c75565b602060405180830381600087803b1580156124cb57600080fd5b505af11580156124df573d6000803e3d6000fd5b505050506040513d601f19601f820116820180604052506125039190810190613897565b151514151561251157600080fd5b7fc0a144e0d9af86fa328820e6f7f9e66f6e2a7248ff06a92aa13dc1f01e26934f853386426040516125469493929190613d3c565b60405180910390a161255785611d43565b9250505092915050565b61256a84611d2c565b151561257557600080fd5b60006125808561150e565b905060008390506000600160008460ff1660ff1681526020019081526020016000206006016002015411156125bd576125ba868287612cc7565b90505b600081111561290c5760608060606125d48961088e565b9250925092506000600160008760ff1660ff16815260200190815260200160002060020160000160008154600101919050819055905060608160405190808252806020026020018201604052801561263b5781602001602082028038833980820191505090505b50905060008090506000600160008a60ff1660ff168152602001908152602001600020600201600201541415612692578282600081518110151561267b57fe5b9060200190602002018181525050600190506127a3565b600080905060008090505b600160008b60ff1660ff1681526020019081526020016000206002016002015481101561277b57821580156126e8575086818151811015156126db57fe5b906020019060200201518d115b156127155784848380600101945081518110151561270257fe5b9060200190602002018181525050600192505b600160008b60ff1660ff1681526020019081526020016000206002016003018181548110151561274157fe5b9060005260206000200154848380600101945081518110151561276057fe5b9060200190602002018181525050808060010191505061269d565b508115156127a15783838281518110151561279257fe5b90602001906020020181815250505b505b81600160008a60ff1660ff16815260200190815260200160002060020160030190805190602001906127d6929190613713565b50600160008960ff1660ff168152602001908152602001600020600201600201600081548092919060010191905055506060604051908101604052808c81526020018881526020013373ffffffffffffffffffffffffffffffffffffffff16815250600160008a60ff1660ff1681526020019081526020016000206002016001016000858152602001908152602001600020600082015181600001556020820151816001015560408201518160020160006101000a81548173ffffffffffffffffffffffffffffffffffffffff021916908373ffffffffffffffffffffffffffffffffffffffff1602179055509050507f2de269261b886d6f12010f4e8cc2640cec96acd4a5929467470dff059ebe20fd8c8c898c426040516128fd959493929190613dd4565b60405180910390a15050505050505b505050505050565b61291d84611d2c565b151561292857600080fd5b60006129338561150e565b905060008390506000600160008460ff1660ff1681526020019081526020016000206002016002015411156129705761296d8682876131d1565b90505b6000811115612cbf576060806060612987896115e7565b9250925092506000600160008760ff1660ff1681526020019081526020016000206006016000016000815460010191905081905590506060816040519080825280602002602001820160405280156129ee5781602001602082028038833980820191505090505b50905060008090506000600160008a60ff1660ff168152602001908152602001600020600601600201541415612a455782826000815181101515612a2e57fe5b906020019060200201818152505060019050612b56565b600080905060008090505b600160008b60ff1660ff16815260200190815260200160002060060160020154811015612b2e5782158015612a9b57508681815181101515612a8e57fe5b906020019060200201518d105b15612ac857848483806001019450815181101515612ab557fe5b9060200190602002018181525050600192505b600160008b60ff1660ff16815260200190815260200160002060060160030181815481101515612af457fe5b90600052602060002001548483806001019450815181101515612b1357fe5b90602001906020020181815250508080600101915050612a50565b50811515612b5457838382815181101515612b4557fe5b90602001906020020181815250505b505b81600160008a60ff1660ff1681526020019081526020016000206006016003019080519060200190612b89929190613713565b50600160008960ff1660ff168152602001908152602001600020600601600201600081548092919060010191905055506060604051908101604052808c81526020018b81526020013373ffffffffffffffffffffffffffffffffffffffff16815250600160008a60ff1660ff1681526020019081526020016000206006016001016000858152602001908152602001600020600082015181600001556020820151816001015560408201518160020160006101000a81548173ffffffffffffffffffffffffffffffffffffffff021916908373ffffffffffffffffffffffffffffffffffffffff1602179055509050507f2e8dd72bba201f077aad453aa17da4eafeb723120abaccbe15ad5a5758f80bc78c8c8c8c42604051612cb0959493929190613dd4565b60405180910390a15050505050505b505050505050565b600080612cd38561150e565b90506000600160008360ff1660ff168152602001908152602001600020600601600201549050600080905060008090505b828110156130bd576000871415612d1a576130bd565b6000600160008660ff1660ff16815260200190815260200160002060060160030182815481101515612d4857fe5b906000526020600020015490506000600160008760ff1660ff16815260200190815260200160002060060160010160008381526020019081526020016000206000015490506000600160008860ff1660ff16815260200190815260200160002060060160010160008481526020019081526020016000206001015490506000600160008960ff1660ff168152602001908152602001600020600601600101600085815260200190815260200160002060020160009054906101000a900473ffffffffffffffffffffffffffffffffffffffff169050828a1015612e2e57505050506130bd565b818b101515612f7457818b039a506000600160008a60ff1660ff16815260200190815260200160002060060160010160008681526020019081526020016000206001018190555085806001019650507f8f088eedf24a9093e9ff818342e44f4a8cb6157e081f92290f2b15e04cc488468c858c8542604051612eb4959493929190613e2e565b60405180910390a1818a02600460008373ffffffffffffffffffffffffffffffffffffffff1673ffffffffffffffffffffffffffffffffffffffff1681526020019081526020016000206000828254019250508190555081600360003373ffffffffffffffffffffffffffffffffffffffff1673ffffffffffffffffffffffffffffffffffffffff16815260200190815260200160002060008a60ff1660ff168152602001908152602001600020600082825401925050819055506130ac565b8a600160008a60ff1660ff1681526020019081526020016000206006016001016000868152602001908152602001600020600101600082825403925050819055507f8f088eedf24a9093e9ff818342e44f4a8cb6157e081f92290f2b15e04cc488468c858c8e42604051612fec959493929190613e2e565b60405180910390a18a8a02600460008373ffffffffffffffffffffffffffffffffffffffff1673ffffffffffffffffffffffffffffffffffffffff168152602001908152602001600020600082825401925050819055508a600360003373ffffffffffffffffffffffffffffffffffffffff1673ffffffffffffffffffffffffffffffffffffffff16815260200190815260200160002060008a60ff1660ff1681526020019081526020016000206000828254019250508190555060009a505b505050508080600101915050612d04565b50600081830390506060816040519080825280602002602001820160405280156130f65781602001602082028038833980820191505090505b50905060008090505b8281101561316957600160008760ff1660ff16815260200190815260200160002060060160030184820181548110151561313557fe5b9060005260206000200154828281518110151561314e57fe5b906020019060200201818152505080806001019150506130ff565b5081600160008760ff1660ff1681526020019081526020016000206006016002018190555080600160008760ff1660ff16815260200190815260200160002060060160030190805190602001906131c1929190613713565b5087955050505050509392505050565b6000806131dd8561150e565b90506000600160008360ff1660ff168152602001908152602001600020600201600201549050600080905060008090505b828110156135c7576000871415613224576135c7565b6000600160008660ff1660ff1681526020019081526020016000206002016003018281548110151561325257fe5b906000526020600020015490506000600160008760ff1660ff16815260200190815260200160002060020160010160008381526020019081526020016000206000015490506000600160008860ff1660ff16815260200190815260200160002060020160010160008481526020019081526020016000206001015490506000600160008960ff1660ff168152602001908152602001600020600201600101600085815260200190815260200160002060020160009054906101000a900473ffffffffffffffffffffffffffffffffffffffff169050828a111561333857505050506135c7565b818b10151561347e57818b039a506000600160008a60ff1660ff16815260200190815260200160002060020160010160008681526020019081526020016000206001018190555085806001019650507f9cb5e28f986c120597ae4060e4c911a901e5a54006024967d04f12c91867a0658c858c85426040516133be959493929190613e2e565b60405180910390a181600360008373ffffffffffffffffffffffffffffffffffffffff1673ffffffffffffffffffffffffffffffffffffffff16815260200190815260200160002060008a60ff1660ff16815260200190815260200160002060008282540192505081905550818a02600460003373ffffffffffffffffffffffffffffffffffffffff1673ffffffffffffffffffffffffffffffffffffffff168152602001908152602001600020600082825401925050819055506135b6565b8a600160008a60ff1660ff1681526020019081526020016000206002016001016000868152602001908152602001600020600101600082825403925050819055507f9cb5e28f986c120597ae4060e4c911a901e5a54006024967d04f12c91867a0658c858c8e426040516134f6959493929190613e2e565b60405180910390a18a600360008373ffffffffffffffffffffffffffffffffffffffff1673ffffffffffffffffffffffffffffffffffffffff16815260200190815260200160002060008a60ff1660ff168152602001908152602001600020600082825401925050819055508a8a02600460003373ffffffffffffffffffffffffffffffffffffffff1673ffffffffffffffffffffffffffffffffffffffff1681526020019081526020016000206000828254019250508190555060009a505b50505050808060010191505061320e565b50600081830390506060816040519080825280602002602001820160405280156136005781602001602082028038833980820191505090505b50905060008090505b8281101561367357600160008760ff1660ff16815260200190815260200160002060020160030184820181548110151561363f57fe5b9060005260206000200154828281518110151561365857fe5b90602001906020020181815250508080600101915050613609565b5081600160008760ff1660ff1681526020019081526020016000206002016002018190555080600160008760ff1660ff16815260200190815260200160002060020160030190805190602001906136cb929190613713565b5087955050505050509392505050565b6060604051908101604052806000815260200160008152602001600073ffffffffffffffffffffffffffffffffffffffff1681525090565b82805482825590600052602060002090810192821561374f579160200282015b8281111561374e578251825591602001919060010190613733565b5b50905061375c91906137e0565b5090565b828054600181600116156101000203166002900490600052602060002090601f016020900481019282601f106137a157805160ff19168380011785556137cf565b828001600101855582156137cf579182015b828111156137ce5782518255916020019190600101906137b3565b5b5090506137dc91906137e0565b5090565b61380291905b808211156137fe5760008160009055506001016137e6565b5090565b90565b6000613811823561403d565b905092915050565b6000613825825161404f565b905092915050565b600082601f830112151561384057600080fd5b813561385361384e82613f37565b613f0a565b9150808252602083016020830185838301111561386f57600080fd5b61387a8382846140ad565b50505092915050565b600061388f823561405b565b905092915050565b6000602082840312156138a957600080fd5b60006138b784828501613819565b91505092915050565b6000602082840312156138d257600080fd5b600082013567ffffffffffffffff8111156138ec57600080fd5b6138f88482850161382d565b91505092915050565b6000806040838503121561391457600080fd5b600083013567ffffffffffffffff81111561392e57600080fd5b61393a8582860161382d565b925050602061394b85828601613805565b9150509250929050565b6000806040838503121561396857600080fd5b600083013567ffffffffffffffff81111561398257600080fd5b61398e8582860161382d565b925050602061399f85828601613883565b9150509250929050565b6000806000606084860312156139be57600080fd5b600084013567ffffffffffffffff8111156139d857600080fd5b6139e48682870161382d565b93505060206139f586828701613883565b9250506040613a0686828701613883565b9150509250925092565b600060208284031215613a2257600080fd5b6000613a3084828501613883565b91505092915050565b613a4281614065565b82525050565b613a5181613fe8565b82525050565b6000613a6282613f8a565b808452602084019350613a7483613f63565b60005b82811015613aa657613a8a868351613a48565b613a9382613fc1565b9150602086019550600181019050613a77565b50849250505092915050565b6000613abd82613f95565b80845260208401935083602082028501613ad685613f70565b60005b84811015613b0f578383038852613af1838351613bc0565b9250613afc82613fce565b9150602088019750600181019050613ad9565b508196508694505050505092915050565b6000613b2b82613fa0565b808452602084019350613b3d83613f7d565b60005b82811015613b6f57613b53868351613bf6565b613b5c82613fdb565b9150602086019550600181019050613b40565b50849250505092915050565b613b8481613ffa565b82525050565b6000613b9582613fb6565b808452613ba98160208601602086016140bc565b613bb2816140ef565b602085010191505092915050565b6000613bcb82613fab565b808452613bdf8160208601602086016140bc565b613be8816140ef565b602085010191505092915050565b613bff81614026565b82525050565b613c0e8161409b565b82525050565b613c1d81614030565b82525050565b6000602082019050613c386000830184613a48565b92915050565b6000606082019050613c536000830186613a39565b613c606020830185613a48565b613c6d6040830184613bf6565b949350505050565b6000604082019050613c8a6000830185613a39565b613c976020830184613bf6565b9392505050565b60006040820190508181036000830152613cb88185613ab2565b90508181036020830152613ccc8184613a57565b90509392505050565b60006060820190508181036000830152613cef8186613b20565b90508181036020830152613d038185613b20565b90508181036040830152613d178184613b20565b9050949350505050565b6000602082019050613d366000830184613b7b565b92915050565b60006080820190508181036000830152613d568187613b8a565b9050613d656020830186613a39565b613d726040830185613bf6565b613d7f6060830184613bf6565b95945050505050565b60006080820190508181036000830152613da28187613b8a565b9050613db16020830186613bf6565b613dbe6040830185613a39565b613dcb6060830184613bf6565b95945050505050565b600060a0820190508181036000830152613dee8188613b8a565b9050613dfd6020830187613bf6565b613e0a6040830186613bf6565b613e176060830185613a48565b613e246080830184613bf6565b9695505050505050565b600060a0820190508181036000830152613e488188613b8a565b9050613e576020830187613bf6565b613e646040830186613bf6565b613e716060830185613bf6565b613e7e6080830184613bf6565b9695505050505050565b6000602082019050613e9d6000830184613bf6565b92915050565b6000602082019050613eb86000830184613c14565b92915050565b6000608082019050613ed36000830187613c05565b8181036020830152613ee58186613b8a565b9050613ef46040830185613a48565b613f016060830184613bf6565b95945050505050565b6000604051905081810181811067ffffffffffffffff82111715613f2d57600080fd5b8060405250919050565b600067ffffffffffffffff821115613f4e57600080fd5b601f19601f8301169050602081019050919050565b6000602082019050919050565b6000602082019050919050565b6000602082019050919050565b600081519050919050565b600081519050919050565b600081519050919050565b600081519050919050565b600081519050919050565b6000602082019050919050565b6000602082019050919050565b6000602082019050919050565b6000613ff382614006565b9050919050565b60008115159050919050565b600073ffffffffffffffffffffffffffffffffffffffff82169050919050565b6000819050919050565b600060ff82169050919050565b600061404882614006565b9050919050565b60008115159050919050565b6000819050919050565b600061407082614077565b9050919050565b600061408282614089565b9050919050565b600061409482614006565b9050919050565b60006140a682614030565b9050919050565b82818337600083830152505050565b60005b838110156140da5780820151818401526020810190506140bf565b838111156140e9576000848401525b50505050565b6000601f19601f830116905091905056fea265627a7a72305820413a50977694c5de7557d8865b2f9c85d10831c8970f95c368567ca641a96c636c6578706572696d656e74616cf50037",
  "source": "// SPDX-License-Identifier: MIT\npragma solidity >=0.4.22 <0.8.0;\npragma experimental ABIEncoderV2;\n\nimport \"./owned.sol\";\nimport \"./Token.sol\";\n\ncontract Exchange is owned {\n\n\t///////////////\n\t/* STRUCTURE */\n\t///////////////\n\n\tstruct Token {\n\n\t\taddress contractAddress;\n\t\tstring symbolName;\n\n\t\tOrderBook buyOrderBook;\n\t\tOrderBook sellOrderBook;\n\n  }\n\n\tstruct Order {\n\t\t\n\t\tuint price;\n\t\tuint amount;\n\t\taddress who;\n\n  }\n\n\tstruct OrderBook {\n\n\t\tuint orderIndex;\n\t\tmapping (uint => Order) orders;\t\t\n\n\t\tuint ordersCount;\n\t\tuint[] ordersQueue;\n\n  }\n\n\tmapping(uint8 => Token) tokens;\n\tuint8 tokenIndex;\t\n\n  mapping (address => mapping(uint8 => uint)) tokenBalanceForAddress;\n\n  mapping (address => uint) etherBalanceForAddress;\n\n\tconstructor () public {\n\t\towner = msg.sender;\n\t\ttokenIndex = 1;\n\t}\n\n\t////////////\n\t/* EVENTS */\n\t////////////\n\n\tevent LogDepositEther(address accountAddress, uint amount);\n\tevent LogWithdrawEther(address accountAddress, uint amount);\n\n\tevent LogDepositToken(string symbolName, address accountAddress, uint amount, uint timestamp);\n\tevent LogWithdrawToken(string symbolName, address accountAddress, uint amount, uint timestamp);\n\tevent LogAddToken(uint tokenIndex, string symbolName, address EC20TokenAddress, uint timestamp);\n\n\tevent LogBuyToken(string symbolName, uint priceInWei, uint amount, address buyer, uint timestamp);\n\tevent LogSellToken(string symbolName, uint priceInWei, uint amount, address buyer, uint timestamp);\n\n\tevent LogCreateBuyOrder(string symbolName, uint priceInWei, uint amount, address buyer, uint timestamp);\n\tevent LogCreateSellOrder(string symbolName, uint priceInWei, uint amount, address seller, uint timestamp);\n\n\tevent LogFulfilBuyOrder(string symbolName, uint orderIndex, uint priceInWei, uint amount, uint timestamp);\n\tevent LogFulfilSellOrder(string symbolName, uint orderIndex, uint priceInWei, uint amount, uint timestamp);\n\n\tevent LogCancelBuyOrder(string symbolName, uint orderIndex, address buyer, uint timestamp);\n\tevent LogCancelSellOrder(string symbolName, uint orderIndex, address seller, uint timestamp);\n\n\t/////////////////////\n\t/* FUNCTIONALITIES */\n\t/////////////////////\n\n\t// Address's Ether account management\n\n  function depositEther() public payable returns (uint totalEtherBalanceInWei) {\n\t\trequire(getEtherBalanceInWei() + msg.value >= getEtherBalanceInWei());\n\n\t\tetherBalanceForAddress[msg.sender] += msg.value;\n\n\t\temit LogDepositEther(msg.sender, msg.value);\n\n\t\treturn getEtherBalanceInWei();\n  }\n\n\n  function withdrawEther(uint amountInWei) public returns (uint totalEtherBalanceInWei) {\n\t\trequire(amountInWei <= getEtherBalanceInWei());\n\n\t\tetherBalanceForAddress[msg.sender] -= amountInWei;\n\n\t\tmsg.sender.transfer(amountInWei);\n\n\t\temit LogWithdrawEther(msg.sender, amountInWei);\n\n\t\treturn getEtherBalanceInWei();\n  }\n\n\n  function getEtherBalanceInWei() public view returns (uint) {\n\t\treturn etherBalanceForAddress[msg.sender];\n  }\n\n\n\t// Owner's AddToken ability\n\n\tfunction addToken(string memory symbolName, address EC20TokenAddress) public onlyowner {\n\t\trequire(!hasToken(symbolName));\n\t\trequire(tokenIndex + 1 >= tokenIndex);\n\n\t\ttokenIndex++;\n\n\t\ttokens[tokenIndex].symbolName = symbolName;\n\t\ttokens[tokenIndex].contractAddress = EC20TokenAddress;\n\t\t\n\t\temit LogAddToken(tokenIndex, symbolName, EC20TokenAddress, block.timestamp);\n  }\n\n\n\t// Address's Tokens account management\n\n  function depositToken(string memory symbolName, uint amount) public returns (uint tokenBalance) {\n\t\trequire(hasToken(symbolName));\n\t\trequire(getBalanceForToken(symbolName) + amount >= getBalanceForToken(symbolName));\n\n\t\tuint8 _tokenIndex = getTokenIndex(symbolName);\t\n\n\t\tERC20Interface token = ERC20Interface(tokens[_tokenIndex].contractAddress);\n\t\trequire(token.transferFrom(msg.sender, address(this), amount) == true);\n\n\t\ttokenBalanceForAddress[msg.sender][_tokenIndex] += amount;\n\n\t\temit LogDepositToken(symbolName, msg.sender, amount, block.timestamp);\n\n\t\treturn getBalanceForToken(symbolName);\n  }\n\n\n  function withdrawToken(string memory symbolName, uint amount) public returns (uint tokenBalance) {\t\n\t\trequire(hasToken(symbolName));\n\t\trequire(amount <= getBalanceForToken(symbolName));\n\n\t\tuint8 _tokenIndex = getTokenIndex(symbolName);\n\t\t\n\t\tERC20Interface token = ERC20Interface(tokens[_tokenIndex].contractAddress);\n\n\t\ttokenBalanceForAddress[msg.sender][_tokenIndex] -= amount;\n\n\t\trequire(token.transfer(msg.sender, amount) == true);\n\n\t\temit LogWithdrawToken(symbolName, msg.sender, amount, block.timestamp);\n\n\t\treturn getBalanceForToken(symbolName);\n  }\n\t\n\n  function getBalanceForToken(string memory symbolName) public view returns (uint) {\n\t\treturn tokenBalanceForAddress[msg.sender][getTokenIndex(symbolName)];\n  }\n\n\n\tfunction getTokenAddress(string memory symbolName) public view returns (address) {\n\t\trequire(hasToken(symbolName));\n\n\t\tuint8 _tokenIndex = getTokenIndex(symbolName);\t\n\n\t\treturn tokens[_tokenIndex].contractAddress;\n\t}\n\n\n\tfunction hasToken(string memory symbolName) public view returns (bool) {\n\t\treturn getTokenIndex(symbolName) > 0;\n  }\n\n\t\n\tfunction getAllTokens() public view returns (string[] memory, address[] memory) {\n\t\tstring[] memory symbolNames = new string[](tokenIndex-1);\n\t\taddress[] memory addresses = new address[](tokenIndex-1);\n\n\t\tfor (uint8 i = 2; i <= tokenIndex; i++) {\n\t\t\tsymbolNames[i-2] = tokens[i].symbolName;\n\t\t\taddresses[i-2] = tokens[i].contractAddress;\n\t\t}\n\n\t\treturn (symbolNames, addresses);\n\t}\n\n\n\tfunction getTokenIndex(string memory symbolName) public view returns (uint8) {\n\t\tfor (uint8 i = 1; i <= tokenIndex; i++) {\n\t\t\tif (keccak256(bytes(symbolName)) == keccak256(bytes(tokens[i].symbolName))) {\n\t\t\t\treturn i;\n\t\t\t}\n\t\t}\n\t\treturn 0;\n\t}\n\n\n\t// Get order books\n\n\tfunction getBuyOrderBook(string memory symbolName) public view returns (uint[] memory, uint[] memory, uint[] memory) {\n\t\trequire(hasToken(symbolName));\n\n\t\tuint8 _tokenIndex = getTokenIndex(symbolName);\n\t\t\n\t\tuint[] memory indexes = new uint[](tokens[_tokenIndex].buyOrderBook.ordersCount);\n\t\tuint[] memory prices = new uint[](tokens[_tokenIndex].buyOrderBook.ordersCount);\n\t\tuint[] memory amounts = new uint[](tokens[_tokenIndex].buyOrderBook.ordersCount);\n\n\t\tfor (uint i = 1; i <= tokens[_tokenIndex].buyOrderBook.ordersCount; i++) {\t\t\t\t\n\t\t\tOrder memory _order = tokens[_tokenIndex].buyOrderBook.orders[tokens[_tokenIndex].buyOrderBook.ordersQueue[i-1]];\n\t\t\tindexes[i-1] = tokens[_tokenIndex].buyOrderBook.ordersQueue[i-1];\n\t\t\tprices[i-1] = _order.price;\n\t\t\tamounts[i-1] = _order.amount;\n\t\t}\n\n\t\treturn (indexes, prices, amounts);\n\t}\n\n\t\n\tfunction getAccountBuyOrders(string memory symbolName) public view returns (uint[] memory, uint[] memory, uint[] memory) {\n\t\trequire(hasToken(symbolName));\n\n\t\tuint8 _tokenIndex = getTokenIndex(symbolName);\n\n\t\t(uint[] memory indexes, uint[] memory prices, uint[] memory amounts) = getBuyOrderBook(symbolName);\n\t\tuint _accountOrdersCount = 0;\n\n\t\tuint[] memory _tempIndexes = new uint[](tokens[_tokenIndex].buyOrderBook.ordersCount);\n\n\t\tfor (uint i = 0; i < tokens[_tokenIndex].buyOrderBook.ordersCount; i++) {\n\t\t\tuint _orderIndex = indexes[i];\n\t\t\tif (tokens[_tokenIndex].buyOrderBook.orders[_orderIndex].who == msg.sender) {\n\t\t\t\t_tempIndexes[_accountOrdersCount] = _orderIndex;\n\t\t\t\t_accountOrdersCount++;\n\t\t\t}\n\t\t}\n\n\t\tuint[] memory _accountIndexes = new uint[](_accountOrdersCount);\n\t\tuint[] memory _accountPrices = new uint[](_accountOrdersCount);\n\t\tuint[] memory _accountAmounts = new uint[](_accountOrdersCount);\n\n\t\tfor (uint j = 0; j < _accountOrdersCount; j++) {\n\t\t\t_accountIndexes[j] = _tempIndexes[j];\n\t\t\t_accountPrices[j] = tokens[_tokenIndex].buyOrderBook.orders[_tempIndexes[j]].price;\n\t\t\t_accountAmounts[j] = tokens[_tokenIndex].buyOrderBook.orders[_tempIndexes[j]].amount;\n\t\t}\n\n\t\treturn (_accountIndexes, _accountPrices, _accountAmounts);\n\t}\n\n\n\tfunction getSellOrderBook(string memory symbolName) public view returns (uint[] memory, uint[] memory, uint[] memory) {\n\t\trequire(hasToken(symbolName));\n\n\t\tuint8 _tokenIndex = getTokenIndex(symbolName);\n\t\t\n\t\tuint[] memory indexes = new uint[](tokens[_tokenIndex].sellOrderBook.ordersCount);\n\t\tuint[] memory prices = new uint[](tokens[_tokenIndex].sellOrderBook.ordersCount);\n\t\tuint[] memory amounts = new uint[](tokens[_tokenIndex].sellOrderBook.ordersCount);\n\n\t\tfor (uint i = 1; i <= tokens[_tokenIndex].sellOrderBook.ordersCount; i++) {\t\t\t\t\n\t\t\tOrder memory _order = tokens[_tokenIndex].sellOrderBook.orders[tokens[_tokenIndex].sellOrderBook.ordersQueue[i-1]];\n\t\t\tindexes[i-1] = tokens[_tokenIndex].sellOrderBook.ordersQueue[i-1];\n\t\t\tprices[i-1] = _order.price;\n\t\t\tamounts[i-1] = _order.amount;\n\t\t}\n\t\t\n\t\treturn (indexes, prices, amounts);\n  }\n\n\n\tfunction getAccountSellOrders(string memory symbolName) public view returns (uint[] memory, uint[] memory, uint[] memory) {\n\t\trequire(hasToken(symbolName));\n\n\t\tuint8 _tokenIndex = getTokenIndex(symbolName);\n\n\t\t(uint[] memory indexes, uint[] memory prices, uint[] memory amounts) = getSellOrderBook(symbolName);\n\t\tuint _accountOrdersCount = 0;\n\n\t\tuint[] memory _tempIndexes = new uint[](tokens[_tokenIndex].sellOrderBook.ordersCount);\n\n\t\tfor (uint i = 0; i < tokens[_tokenIndex].sellOrderBook.ordersCount; i++) {\n\t\t\tuint _orderIndex = indexes[i];\n\t\t\tif (tokens[_tokenIndex].sellOrderBook.orders[_orderIndex].who == msg.sender) {\n\t\t\t\t_tempIndexes[_accountOrdersCount] = _orderIndex;\n\t\t\t\t_accountOrdersCount++;\n\t\t\t}\n\t\t}\n\n\t\tuint[] memory _accountIndexes = new uint[](_accountOrdersCount);\n\t\tuint[] memory _accountPrices = new uint[](_accountOrdersCount);\n\t\tuint[] memory _accountAmounts = new uint[](_accountOrdersCount);\n\n\t\tfor (uint j = 0; j < _accountOrdersCount; j++) {\n\t\t\t_accountIndexes[j] = _tempIndexes[j];\n\t\t\t_accountPrices[j] = tokens[_tokenIndex].sellOrderBook.orders[_tempIndexes[j]].price;\n\t\t\t_accountAmounts[j] = tokens[_tokenIndex].sellOrderBook.orders[_tempIndexes[j]].amount;\n\t\t}\n\n\t\treturn (_accountIndexes, _accountPrices, _accountAmounts);\n\t}\n\n\n\t// Create orders (buy / sell)\n\n\tfunction createBuyOrder(string memory symbolName, uint priceInWei, uint amount, address buyer) private {\n\t\trequire(hasToken(symbolName));\n\n\t\tuint8 _tokenIndex = getTokenIndex(symbolName);\n\n\t\tuint _buy_amount_balance = amount;\n\n\t\t// fulfil buyOrder by checking against which sell orders can be fulfil\n\t\tif (tokens[_tokenIndex].sellOrderBook.ordersCount > 0) {\n\t\t\t_buy_amount_balance = fulfilBuyOrder(symbolName, _buy_amount_balance, priceInWei);\n\t\t} \n\t\n\t\t// check if buyOrder is fully fulfiled\n\t\tif (_buy_amount_balance > 0) {\n\t\t\t// update buyOrderBook - ordersQueue\n\t\t\t(uint[] memory indexes, uint[] memory prices, uint[] memory amounts) = getBuyOrderBook(symbolName);\n\t\t\tuint _newOrderIndex = ++tokens[_tokenIndex].buyOrderBook.orderIndex;\n\t\t\tuint[] memory _newOrdersQueue = new uint[](_newOrderIndex);\n\t\t\t\n\t\t\tbool _isOrderAdded = false;\n\t\t\tif (tokens[_tokenIndex].buyOrderBook.ordersCount == 0) {\n\t\t\t\t_newOrdersQueue[0] = _newOrderIndex;\n\t\t\t\t_isOrderAdded = true;\n\t\t\t}\n\t\t\telse {\n\t\t\t\tuint _newOrdersQueueIndex = 0;\n\t\t\t\tfor (uint _counter = 0; _counter < tokens[_tokenIndex].buyOrderBook.ordersCount; _counter++) {\n\t\t\t\t\tif (!_isOrderAdded && priceInWei > prices[_counter]) {\n\t\t\t\t\t\t_newOrdersQueue[_newOrdersQueueIndex++] = _newOrderIndex;\n\t\t\t\t\t\t_isOrderAdded = true;\n\t\t\t\t\t}\n\t\t\t\t\t_newOrdersQueue[_newOrdersQueueIndex++] = tokens[_tokenIndex].buyOrderBook.ordersQueue[_counter];\n\t\t\t\t}\n\t\t\t\t// for the case of the price being lower than the lowest price of the orderbook\n\t\t\t\tif (!_isOrderAdded) {\n\t\t\t\t\t\t_newOrdersQueue[_newOrdersQueueIndex] = _newOrderIndex;\n\t\t\t\t}\n\t\t\t}\n\n\t\t\t// replace existing orders queue is it's not empty\n\t\t\ttokens[_tokenIndex].buyOrderBook.ordersQueue = _newOrdersQueue;\n\t\t\t\n\t\t\t// Add new order to OrderBook\n\t\t\ttokens[_tokenIndex].buyOrderBook.ordersCount++;\n\t\t\ttokens[_tokenIndex].buyOrderBook.orders[_newOrderIndex] = \n\t\t\t\tOrder({ price: priceInWei, amount: _buy_amount_balance, who: msg.sender });\n\t\t\t\n\t\t\t// fire event\n\t\t\temit LogCreateBuyOrder(symbolName, priceInWei, _buy_amount_balance, buyer, block.timestamp);\n\t\t}\n\t}\n\n\n\tfunction fulfilBuyOrder(string memory symbolName, uint _buy_amount_balance, uint priceInWei) private returns (uint) {\n\t\tuint8 _tokenIndex = getTokenIndex(symbolName);\n\t\tuint _currSellOrdersCount = tokens[_tokenIndex].sellOrderBook.ordersCount;\n\n\t\tuint _countSellOrderFulfiled = 0;\n\n\t\t// update sellOrderBook - orders\n\t\tfor (uint i = 0; i < _currSellOrdersCount; i++) {\n\t\t\tif (_buy_amount_balance == 0) break;\n\n\t\t\tuint _orderIndex = tokens[_tokenIndex].sellOrderBook.ordersQueue[i];\n\t\t\tuint _orderPrice = tokens[_tokenIndex].sellOrderBook.orders[_orderIndex].price;\n\t\t\tuint _orderAmount = tokens[_tokenIndex].sellOrderBook.orders[_orderIndex].amount;\n\t\t\taddress _orderOwner = tokens[_tokenIndex].sellOrderBook.orders[_orderIndex].who;\n\n\t\t\tif (priceInWei < _orderPrice) break;\n\n\t\t\tif (_buy_amount_balance >= _orderAmount) {\n\t\t\t\t_buy_amount_balance -= _orderAmount;\n\t\t\t\t\n\t\t\t\ttokens[_tokenIndex].sellOrderBook.orders[_orderIndex].amount = 0;\n\t\t\t\t_countSellOrderFulfiled++;\n\t\t\t\temit LogFulfilSellOrder(symbolName, _orderIndex, priceInWei, _orderAmount, block.timestamp);\n\n\t\t\t\tetherBalanceForAddress[_orderOwner] += priceInWei * _orderAmount;\n\t\t\t\ttokenBalanceForAddress[msg.sender][_tokenIndex] += _orderAmount;\n\t\t\t}\n\t\t\telse {\n\t\t\t\ttokens[_tokenIndex].sellOrderBook.orders[_orderIndex].amount -= _buy_amount_balance;\n\t\t\t\temit LogFulfilSellOrder(symbolName, _orderIndex, priceInWei, _buy_amount_balance, block.timestamp);\n\n\t\t\t\tetherBalanceForAddress[_orderOwner] += priceInWei * _buy_amount_balance;\n\t\t\t\ttokenBalanceForAddress[msg.sender][_tokenIndex] += _buy_amount_balance;\n\n\t\t\t\t_buy_amount_balance = 0;\n\t\t\t}\n\t\t}\n\n\t\t// update sellOrderBook - ordersBook and ordersCount\n\t\tuint _newSellOrdersCount = _currSellOrdersCount - _countSellOrderFulfiled;\n\n\t\tuint[] memory _newSellOrdersQueue = new uint[](_newSellOrdersCount);\n\t\tfor (uint i = 0; i < _newSellOrdersCount; i++) {\n\t\t\t_newSellOrdersQueue[i] = tokens[_tokenIndex].sellOrderBook.ordersQueue[i + _countSellOrderFulfiled];\n\t\t}\n\n\t\ttokens[_tokenIndex].sellOrderBook.ordersCount = _newSellOrdersCount;\n\t\ttokens[_tokenIndex].sellOrderBook.ordersQueue = _newSellOrdersQueue;\n\n\t\treturn _buy_amount_balance;\n\t}\n\n\n\tfunction createSellOrder(string memory symbolName, uint priceInWei, uint amount, address seller) private {\n\t\trequire(hasToken(symbolName));\n\n\t\tuint8 _tokenIndex = getTokenIndex(symbolName);\n\n\t\tuint _sell_amount_balance = amount;\n\n\t\t// fulfil sellOrder by checking against which buy orders can be fulfil\n\t\tif (tokens[_tokenIndex].buyOrderBook.ordersCount > 0) {\n\t\t\t_sell_amount_balance = fulfilSellOrder(symbolName, _sell_amount_balance, priceInWei);\n\t\t} \n\n\t\t// check if buyOrder is fully fulfiled\n\t\tif (_sell_amount_balance > 0) {\n\t\t\t// Update ordersQueue of OrderBook\n\t\t\t(uint[] memory indexes, uint[] memory prices, uint[] memory amounts) = getSellOrderBook(symbolName);\n\t\t\tuint _newOrderIndex = ++tokens[_tokenIndex].sellOrderBook.orderIndex;\n\t\t\tuint[] memory _newOrdersQueue = new uint[](_newOrderIndex);\n\t\t\t\n\t\t\tbool _isOrderAdded = false;\n\t\t\tif (tokens[_tokenIndex].sellOrderBook.ordersCount == 0) {\n\t\t\t\t_newOrdersQueue[0] = _newOrderIndex;\n\t\t\t\t_isOrderAdded = true;\n\t\t\t}\n\t\t\telse {\n\t\t\t\tuint _newOrdersQueueIndex = 0;\n\t\t\t\tfor (uint _counter = 0; _counter < tokens[_tokenIndex].sellOrderBook.ordersCount; _counter++) {\n\t\t\t\t\tif (!_isOrderAdded && priceInWei < prices[_counter]) {\n\t\t\t\t\t\t_newOrdersQueue[_newOrdersQueueIndex++] = _newOrderIndex;\n\t\t\t\t\t\t_isOrderAdded = true;\n\t\t\t\t\t}\n\t\t\t\t\t_newOrdersQueue[_newOrdersQueueIndex++] = tokens[_tokenIndex].sellOrderBook.ordersQueue[_counter];\n\t\t\t\t}\n\t\t\t\t// for the case of the price being lower than the lowest price of the orderbook\n\t\t\t\tif (!_isOrderAdded) {\n\t\t\t\t\t\t_newOrdersQueue[_newOrdersQueueIndex] = _newOrderIndex;\n\t\t\t\t} \n\t\t\t}\n\n\t\t\t// replace existing orders queue is it's not empty\n\t\t\ttokens[_tokenIndex].sellOrderBook.ordersQueue = _newOrdersQueue;\n\t\t\t\n\t\t\t// Add new order to OrderBook\n\t\t\ttokens[_tokenIndex].sellOrderBook.ordersCount++;\n\t\t\ttokens[_tokenIndex].sellOrderBook.orders[_newOrderIndex] = \n\t\t\t\tOrder({ price: priceInWei, amount: amount, who: msg.sender });\n\t\t\t\n\t\t\t// fire event\n\t\t\temit LogCreateSellOrder(symbolName, priceInWei, amount, seller, block.timestamp);\n\t\t}\n\t}\n\n\n\tfunction fulfilSellOrder(string memory symbolName, uint _sell_amount_balance, uint priceInWei) private returns (uint) {\n\t\tuint8 _tokenIndex = getTokenIndex(symbolName);\n\t\tuint _currBuyOrdersCount = tokens[_tokenIndex].buyOrderBook.ordersCount;\n\n\t\tuint _countBuyOrderFulfiled = 0;\n\n\t\t// update buyOrderBook - orders\n\t\tfor (uint i = 0; i < _currBuyOrdersCount; i++) {\n\t\t\tif (_sell_amount_balance == 0) break;\n\n\t\t\tuint _orderIndex = tokens[_tokenIndex].buyOrderBook.ordersQueue[i];\n\t\t\tuint _orderPrice = tokens[_tokenIndex].buyOrderBook.orders[_orderIndex].price;\n\t\t\tuint _orderAmount = tokens[_tokenIndex].buyOrderBook.orders[_orderIndex].amount;\n\t\t\taddress _orderOwner = tokens[_tokenIndex].buyOrderBook.orders[_orderIndex].who;\n\n\t\t\tif (priceInWei > _orderPrice) break;\n\n\t\t\tif (_sell_amount_balance >= _orderAmount) {\n\t\t\t\t_sell_amount_balance -= _orderAmount;\n\t\t\t\t\n\t\t\t\ttokens[_tokenIndex].buyOrderBook.orders[_orderIndex].amount = 0;\n\t\t\t\t_countBuyOrderFulfiled++;\n\t\t\t\temit LogFulfilBuyOrder(symbolName, _orderIndex, priceInWei, _orderAmount, block.timestamp);\n\n\t\t\t\ttokenBalanceForAddress[_orderOwner][_tokenIndex] += _orderAmount;\n\t\t\t\tetherBalanceForAddress[msg.sender] += priceInWei * _orderAmount;\n\t\t\t}\n\t\t\telse {\n\t\t\t\ttokens[_tokenIndex].buyOrderBook.orders[_orderIndex].amount -= _sell_amount_balance;\n\t\t\t\temit LogFulfilBuyOrder(symbolName, _orderIndex, priceInWei, _sell_amount_balance, block.timestamp);\n\n\t\t\t\ttokenBalanceForAddress[_orderOwner][_tokenIndex] += _sell_amount_balance;\n\t\t\t\tetherBalanceForAddress[msg.sender] += priceInWei * _sell_amount_balance;\n\n\t\t\t\t_sell_amount_balance = 0;\n\t\t\t}\n\t\t}\n\n\t\t// update buyOrderBook - ordersBook and ordersCount\n\t\tuint _newBuyOrdersCount = _currBuyOrdersCount - _countBuyOrderFulfiled;\n\n\t\tuint[] memory _newBuyOrdersQueue = new uint[](_newBuyOrdersCount);\n\t\tfor (uint i = 0; i < _newBuyOrdersCount; i++) {\n\t\t\t_newBuyOrdersQueue[i] = tokens[_tokenIndex].buyOrderBook.ordersQueue[i + _countBuyOrderFulfiled];\n\t\t}\n\n\t\ttokens[_tokenIndex].buyOrderBook.ordersCount = _newBuyOrdersCount;\n\t\ttokens[_tokenIndex].buyOrderBook.ordersQueue = _newBuyOrdersQueue;\n\n\t\treturn _sell_amount_balance;\n\t}\n\n\n\t// Buy / Sell token\n\t\n\tfunction buyToken(string memory symbolName, uint priceInWei, uint amount) public {\n\t\trequire(hasToken(symbolName));\n\t\trequire(priceInWei > 0);\n\t\trequire(amount > 0);\n\t\t\n\t\tuint total_ether_needed = priceInWei * amount;\n\t\trequire(total_ether_needed <= getEtherBalanceInWei());\n\t\tetherBalanceForAddress[msg.sender] -= total_ether_needed;\n\n\t\tcreateBuyOrder(symbolName, priceInWei, amount, msg.sender);\n\t}\n\n\n\tfunction sellToken(string memory symbolName, uint priceInWei, uint amount) public {\n\t\trequire(hasToken(symbolName));\n\t\trequire(priceInWei > 0);\n\t\trequire(amount > 0);\n\n\t\tuint8 _tokenIndex = getTokenIndex(symbolName);\n\t\t\n\t\tuint total_token_available = tokenBalanceForAddress[msg.sender][_tokenIndex];\n\t\trequire(amount <= total_token_available);\n\t\ttokenBalanceForAddress[msg.sender][_tokenIndex] -= amount;\n\n\t\tcreateSellOrder(symbolName, priceInWei, amount, msg.sender);\n\t}\n\n\n  function cancelBuyOrder(string memory symbolName, uint orderIndex) public {\n\t\trequire(hasToken(symbolName));\n\n\t\tuint8 _tokenIndex = getTokenIndex(symbolName);\n\n\t\trequire(tokens[_tokenIndex].buyOrderBook.ordersCount > 0);\n\n\t\t// Check order is in OrderBook\n\t\t// Create new orderQueue\n\t\tbool _isOrderInBook = false;\n\t\tuint _newOrderQueueIndex = 0;\n\t\tuint[] memory _newOrdersQueue = new uint[](tokens[_tokenIndex].buyOrderBook.ordersCount - 1);\n\t\tuint _priceInWei;\n\t\tuint _amount;\n\t\t\n\t\tfor (uint _orderQueueIndex = 0; _orderQueueIndex < tokens[_tokenIndex].buyOrderBook.ordersCount; _orderQueueIndex++) {\n\t\t\tif (orderIndex == tokens[_tokenIndex].buyOrderBook.ordersQueue[_orderQueueIndex]) {\n\t\t\t\t_isOrderInBook = true;\n\t\t\t\t_priceInWei = tokens[_tokenIndex].buyOrderBook.orders[orderIndex].price;\n\t\t\t\t_amount = tokens[_tokenIndex].buyOrderBook.orders[orderIndex].amount;\n\t\t\t} else {\n\t\t\t\t_newOrdersQueue[_newOrderQueueIndex] = tokens[_tokenIndex].buyOrderBook.ordersQueue[_orderQueueIndex];\n\t\t\t\t_newOrderQueueIndex++;\n\t\t\t}\n\t\t}\n\t\trequire(_isOrderInBook);\t\t\n\n\t\t// Update OrderBook and OrderQueue\n\t\ttokens[_tokenIndex].buyOrderBook.ordersCount--;\n\t\ttokens[_tokenIndex].buyOrderBook.ordersQueue = _newOrdersQueue;\n\n\t\t// refund ether balance back to user's account\n\t\tetherBalanceForAddress[msg.sender] += _priceInWei * _amount;\n\n\t\temit LogCancelBuyOrder(symbolName, orderIndex, msg.sender, block.timestamp);\n  }\n\n\tfunction cancelSellOrder(string memory symbolName, uint orderIndex) public {\n\t\trequire(hasToken(symbolName));\n\n\t\tuint8 _tokenIndex = getTokenIndex(symbolName);\n\n\t\trequire(tokens[_tokenIndex].sellOrderBook.ordersCount > 0);\n\n\t\t// Check order is in OrderBook\n\t\t// Create new orderQueue\n\t\tbool _isOrderInBook = false;\n\t\tuint _newOrderQueueIndex = 0;\n\t\tuint[] memory _newOrdersQueue = new uint[](tokens[_tokenIndex].sellOrderBook.ordersCount - 1);\n\t\tuint _amount;\n\t\t\n\t\tfor (uint _orderQueueIndex = 0; _orderQueueIndex < tokens[_tokenIndex].sellOrderBook.ordersCount; _orderQueueIndex++) {\n\t\t\tif (orderIndex == tokens[_tokenIndex].sellOrderBook.ordersQueue[_orderQueueIndex]) {\n\t\t\t\t_isOrderInBook = true;\n\t\t\t\t_amount = tokens[_tokenIndex].sellOrderBook.orders[orderIndex].amount;\n\t\t\t} else {\n\t\t\t\t_newOrdersQueue[_newOrderQueueIndex] = tokens[_tokenIndex].sellOrderBook.ordersQueue[_orderQueueIndex];\n\t\t\t\t_newOrderQueueIndex++;\n\t\t\t}\n\t\t}\n\t\trequire(_isOrderInBook);\t\t\n\n\t\t// Update OrderBook and OrderQueue\n\t\ttokens[_tokenIndex].sellOrderBook.ordersCount--;\n\t\ttokens[_tokenIndex].sellOrderBook.ordersQueue = _newOrdersQueue;\n\n\t\t// refund token balance back to user's account\n\t\ttokenBalanceForAddress[msg.sender][_tokenIndex] += _amount;\n\n\t\temit LogCancelSellOrder(symbolName, orderIndex, msg.sender, block.timestamp);\n  }\n\n}",
  "sourcePath": "/Users/seantan/Desktop/blockchain/orderbook-dex/contracts/Exchange.sol",
  "compiler": {
    "name": "solc",
    "version": "0.5.1+commit.c8a2cb62.Emscripten.clang"
  },
  "schemaVersion": "3.4.16",
  "updatedAt": "2024-10-04T10:16:18.583Z",
  "networkType": "ethereum",
  "devdoc": {
    "methods": {}
  },
  "userdoc": {
    "methods": {
      "depositEther()": {
        "notice": "//////////////////"
      }
    }
  }
}