{
  "contractName": "owned",
  "abi": [
    {
      "constant": true,
      "inputs": [],
      "name": "getOwner",
      "outputs": [
        {
          "name": "",
          "type": "address"
        }
      ],
      "payable": false,
      "stateMutability": "view",
      "type": "function"
    }
  ],
  "bytecode": "0x608060405234801561001057600080fd5b5060e78061001f6000396000f3fe6080604052600436106039576000357c010000000000000000000000000000000000000000000000000000000090048063893d20e814603e575b600080fd5b348015604957600080fd5b5060506092565b604051808273ffffffffffffffffffffffffffffffffffffffff1673ffffffffffffffffffffffffffffffffffffffff16815260200191505060405180910390f35b60008060009054906101000a900473ffffffffffffffffffffffffffffffffffffffff1690509056fea165627a7a7230582002cfc9b46b8237ad168daa8f1ed34f551871a889990230f0a6bf09da2fcf39a90029",
  "source": "// SPDX-License-Identifier: MIT\npragma solidity 0.5.1;\n\ncontract owned {\n\taddress owner;\n\n\tmodifier onlyowner() {\n\t\trequire(msg.sender == owner);\n\t\t_;\n\t}\n\n\tfunction getOwner() public view returns (address) {\n\t\treturn owner;\n\t}\n}",
  "sourcePath": "/Users/seantan/Desktop/blockchain/orderbook-dex/contracts/owned.sol",
  "compiler": {
    "name": "solc",
    "version": "0.5.1+commit.c8a2cb62.Emscripten.clang"
  },
  "schemaVersion": "3.4.16",
  "updatedAt": "2024-10-04T16:28:35.524Z",
  "networkType": "ethereum",
  "devdoc": {
    "methods": {}
  },
  "userdoc": {
    "methods": {}
  }
}